:1000000009C022C021C020C01FC01EC01DC01CC00E
:100010001BC01AC011241FBECFE9CDBF10E0A0E65F
:10002000B0E0E0E9F2E003C0C89531960D92A03649
:10003000B107D1F710E0A0E6B0E001C01D92A239EF
:10004000B107E1F711D023C1DBCF982FC39A83E822
:1000500086B997B9369A3699FECF369A3699FECF39
:10006000C39884B195B10895CFE9D0E0DEBFCDBF8C
:10007000CC24DD24AA248C2C9D2C41E0B42EFD2C14
:10008000EC2C87B38C6087BB03E010E082E0DDDFFF
:10009000E80EF91E80E69AEEF92FE82F3197F1F776
:1000A000F92FE82F3197F1F7F92FE82F3197F1F772
:1000B000F92FE82F3197F1F70197F1F70150104030
:1000C00017FFE4CFF694E794F694E79488E290E083
:1000D000E80EF91E82E0B9DF8E159F0518F423E0C3
:1000E00030E002C026E030E000E010E00217130725
:1000F00088F4E0E6FAEEC29A8E2F9F2F0197F1F76F
:10010000C2988E2F9F2F0197F1F70F5F1F4F021795
:10011000130788F380E395E7A0E0B0E0F92FE82F1C
:100120003197F1F7F92FE82F3197F1F7F92FE82FF1
:100130003197F1F7F92FE82F3197F1F7F92FE82FE1
:100140003197F1F7BB2009F464C0A0EEBEE2C0E035
:10015000D0E004E010E0C29A8A2F9B2F0197F1F7BC
:10016000C2988A2F9B2F0197F1F70150104017FF7B
:10017000F2CF00E010E082E068DFF12FE02F23E013
:10018000F695E7952A95E1F7312F202F27703070EB
:10019000E816F90670F4E05AFF4F81E090E002C0E3
:1001A000880F991F2A95E2F72081282B2083C29A75
:1001B0000FC0E05AFF4F81E090E002C0880F991F06
:1001C0002A95E2F7982F9095808189238083C298A1
:1001D0008CE49DE10197F1F70F5F1F4F91E000392B
:1001E000190748F2A0EEBEE2C0E0D0E006E010E061
:1001F000C29A8A2F9B2F0197F1F7C2988A2F9B2FC3
:100200000197F1F70150104017FFF2CFBB24CC2427
:10021000DD24CB2D82E019DFE816F90608F4C1E0F1
:10022000CA1559F09D2D8C2D881999090A9719F432
:1002300091E0B92E02C08C2C9D2CAC2EFD2DEC2D06
:1002400083E0F695E7958A95E1F7E05AFF4F8081C4
:1002500099273D2D2C2D2770307002C095958795DC
:100260002A95E2F780FF02C0C29A01C0C2988CE4CE
:100270009DE10197F1F70894C11CD11C80E9C816D3
:1002800081E0D80609F05ECFCC24DD245BCFFFCF20
:00000001FF
