:1000000009C016C015C014C013C012C011C010C062
:100010000FC00EC011241FBECFE9CDBF10E0A0E677
:10002000B0E001C01D92A239B107E1F711D016C1AD
:10003000E7CFC39A93E896B987B9369A3699FECF37
:10004000369A3699FECFC39824B135B1C9010895C7
:100050006F927F928F929F92AF92BF92CF92DF92D8
:10006000EF92FF920F931F93CF93DF9387B38C6030
:1000700087BB00E010E0C0E0D0E070E6E72E7AEE4B
:10008000F72E82E0D6DFC80FD91FC7010197F1F71D
:10009000C7010197F1F7C7010197F1F7C701019770
:1000A000F1F7C7010197F1F70F5F1F4F04301105FA
:1000B00041F78E011695079516950795085D1F4F18
:1000C00082E0B7DF8017910718F046E050E002C0E9
:1000D00043E050E020E030E060E67AEEC29ACB01E7
:1000E0000197F1F7C298CB010197F1F72F5F3F4FCE
:1000F0002417350798F380E395E7FC013197F1F772
:10010000FC013197F1F7FC013197F1F7FC013197D0
:10011000F1F70197F1F7C0E0D0E0EE24AA24BB2468
:10012000FF24F39450EEC52E5EE2D52E41E0642EFE
:10013000712C3CE4832E3DE1932E04C0C0E0D0E05E
:10014000FF2455C0FF2009F452C020E030E0C29ADD
:10015000C6010197F1F7C298C6010197F1F72F5F29
:100160003F4F2530310599F7C0E0D0E082E061DFF4
:10017000FE0123E0F695E7952A95E1F79E012770A9
:1001800030700817190770F4E05AFF4FC30102C01E
:10019000880F991F2A95E2F79C018081822B80832A
:1001A000C29A0DC0E05AFF4FC30102C0880F991FC9
:1001B0002A95E2F78095208182238083C298C4012A
:1001C0000197F1F7219691E0C039D90779F620E03F
:1001D00030E0C29AC6010197F1F7C298C6010197B3
:1001E000F1F72F5F3F4F2730310599F7A7CF82E016
:1001F00020DF40E00817190708F441E04E1549F0E8
:10020000CE018A199B090A9711F05E0102C0FF24F2
:10021000F394FE0183E0F695E7958A95E1F7E05ABD
:10022000FF4F808190E09E012770307002C095954D
:1002300087952A95E2F780FF02C0C29A01C0C29852
:10024000C4010197F1F7219681E0C039D80711F078
:10025000E42E78CFE42EC0E0D0E074CFF894FFCF46
:00000001FF
